{
    "_format": "hh-sol-artifact-1",
    "contractName": "Space_Share",
    "sourceName": "contracts/space_share.sol",
    "abi": [
        {
            "inputs": [],
            "name": "Unauthorized",
            "type": "error"
        },
        {
            "anonymous": false,
            "inputs": [
                {
                    "indexed": false,
                    "internalType": "address",
                    "name": "dataOwner",
                    "type": "address"
                },
                {
                    "indexed": false,
                    "internalType": "address",
                    "name": "storageOwner",
                    "type": "address"
                },
                {
                    "indexed": false,
                    "internalType": "uint256",
                    "name": "volumeGB",
                    "type": "uint256"
                },
                {
                    "indexed": false,
                    "internalType": "uint256",
                    "name": "pricePerGB",
                    "type": "uint256"
                },
                {
                    "indexed": false,
                    "internalType": "uint256",
                    "name": "startDate",
                    "type": "uint256"
                }
            ],
            "name": "StorageContractCreated",
            "type": "event"
        },
        {
            "inputs": [
                {
                    "internalType": "address",
                    "name": "",
                    "type": "address"
                }
            ],
            "name": "DataOwnerMap",
            "outputs": [
                {
                    "internalType": "address",
                    "name": "DO",
                    "type": "address"
                },
                {
                    "internalType": "string",
                    "name": "DOConnectionInfo",
                    "type": "string"
                }
            ],
            "stateMutability": "view",
            "type": "function"
        },
        {
            "inputs": [
                {
                    "internalType": "bytes32",
                    "name": "",
                    "type": "bytes32"
                }
            ],
            "name": "StorageContractMap",
            "outputs": [
                {
                    "internalType": "address",
                    "name": "DO",
                    "type": "address"
                },
                {
                    "internalType": "address",
                    "name": "SO",
                    "type": "address"
                },
                {
                    "internalType": "string",
                    "name": "SOConnectionInfo",
                    "type": "string"
                },
                {
                    "internalType": "string",
                    "name": "DOConnectionInfo",
                    "type": "string"
                },
                {
                    "internalType": "uint256",
                    "name": "volumeGB",
                    "type": "uint256"
                },
                {
                    "internalType": "uint256",
                    "name": "startDate",
                    "type": "uint256"
                },
                {
                    "internalType": "uint256",
                    "name": "pricePerGB",
                    "type": "uint256"
                }
            ],
            "stateMutability": "view",
            "type": "function"
        },
        {
            "inputs": [
                {
                    "internalType": "address",
                    "name": "",
                    "type": "address"
                }
            ],
            "name": "StorageOwnerMap",
            "outputs": [
                {
                    "internalType": "address",
                    "name": "SO",
                    "type": "address"
                },
                {
                    "internalType": "uint256",
                    "name": "volumeGB",
                    "type": "uint256"
                },
                {
                    "internalType": "uint256",
                    "name": "pricePerGB",
                    "type": "uint256"
                },
                {
                    "internalType": "string",
                    "name": "SOConnectionInfo",
                    "type": "string"
                }
            ],
            "stateMutability": "view",
            "type": "function"
        },
        {
            "inputs": [
                {
                    "internalType": "address",
                    "name": "SO",
                    "type": "address"
                }
            ],
            "name": "cancelStorageContract",
            "outputs": [],
            "stateMutability": "nonpayable",
            "type": "function"
        },
        {
            "inputs": [
                {
                    "internalType": "address",
                    "name": "SO",
                    "type": "address"
                }
            ],
            "name": "cancelStorageOrder",
            "outputs": [],
            "stateMutability": "nonpayable",
            "type": "function"
        },
        {
            "inputs": [
                {
                    "internalType": "address",
                    "name": "SO",
                    "type": "address"
                },
                {
                    "internalType": "string",
                    "name": "DOConnectionInfo",
                    "type": "string"
                }
            ],
            "name": "createStorageContract",
            "outputs": [],
            "stateMutability": "nonpayable",
            "type": "function"
        },
        {
            "inputs": [
                {
                    "internalType": "uint256",
                    "name": "volumeGB",
                    "type": "uint256"
                },
                {
                    "internalType": "uint256",
                    "name": "pricePerGB",
                    "type": "uint256"
                },
                {
                    "internalType": "string",
                    "name": "SOConnectionInfo",
                    "type": "string"
                }
            ],
            "name": "createStorageOrder",
            "outputs": [],
            "stateMutability": "nonpayable",
            "type": "function"
        },
        {
            "inputs": [
                {
                    "internalType": "address",
                    "name": "DO",
                    "type": "address"
                }
            ],
            "name": "getStorageContractsByDO",
            "outputs": [
                {
                    "components": [
                        {
                            "internalType": "address",
                            "name": "DO",
                            "type": "address"
                        },
                        {
                            "internalType": "address",
                            "name": "SO",
                            "type": "address"
                        },
                        {
                            "internalType": "string",
                            "name": "SOConnectionInfo",
                            "type": "string"
                        },
                        {
                            "internalType": "string",
                            "name": "DOConnectionInfo",
                            "type": "string"
                        },
                        {
                            "internalType": "uint256",
                            "name": "volumeGB",
                            "type": "uint256"
                        },
                        {
                            "internalType": "uint256",
                            "name": "startDate",
                            "type": "uint256"
                        },
                        {
                            "internalType": "uint256",
                            "name": "pricePerGB",
                            "type": "uint256"
                        }
                    ],
                    "internalType": "struct Space_Share.StorageContract[]",
                    "name": "",
                    "type": "tuple[]"
                }
            ],
            "stateMutability": "view",
            "type": "function"
        },
        {
            "inputs": [
                {
                    "internalType": "address",
                    "name": "SO",
                    "type": "address"
                }
            ],
            "name": "getStorageContractsBySO",
            "outputs": [
                {
                    "components": [
                        {
                            "internalType": "address",
                            "name": "DO",
                            "type": "address"
                        },
                        {
                            "internalType": "address",
                            "name": "SO",
                            "type": "address"
                        },
                        {
                            "internalType": "string",
                            "name": "SOConnectionInfo",
                            "type": "string"
                        },
                        {
                            "internalType": "string",
                            "name": "DOConnectionInfo",
                            "type": "string"
                        },
                        {
                            "internalType": "uint256",
                            "name": "volumeGB",
                            "type": "uint256"
                        },
                        {
                            "internalType": "uint256",
                            "name": "startDate",
                            "type": "uint256"
                        },
                        {
                            "internalType": "uint256",
                            "name": "pricePerGB",
                            "type": "uint256"
                        }
                    ],
                    "internalType": "struct Space_Share.StorageContract[]",
                    "name": "",
                    "type": "tuple[]"
                }
            ],
            "stateMutability": "view",
            "type": "function"
        },
        {
            "inputs": [
                {
                    "internalType": "address",
                    "name": "_SO",
                    "type": "address"
                }
            ],
            "name": "getStorageOrder",
            "outputs": [
                {
                    "components": [
                        {
                            "internalType": "address",
                            "name": "SO",
                            "type": "address"
                        },
                        {
                            "internalType": "uint256",
                            "name": "volumeGB",
                            "type": "uint256"
                        },
                        {
                            "internalType": "uint256",
                            "name": "pricePerGB",
                            "type": "uint256"
                        },
                        {
                            "internalType": "string",
                            "name": "SOConnectionInfo",
                            "type": "string"
                        }
                    ],
                    "internalType": "struct Space_Share.StorageOwner",
                    "name": "SO",
                    "type": "tuple"
                }
            ],
            "stateMutability": "view",
            "type": "function"
        },
        {
            "inputs": [],
            "name": "getStorageOrderLength",
            "outputs": [
                {
                    "internalType": "uint256",
                    "name": "",
                    "type": "uint256"
                }
            ],
            "stateMutability": "view",
            "type": "function"
        }
    ],
    "bytecode": "0x608060405234801561001057600080fd5b50612742806100206000396000f3fe608060405234801561001057600080fd5b50600436106100a95760003560e01c806390ce03071161007157806390ce030714610168578063ac4679d114610198578063ad6a0c38146101b6578063b93e1859146101e9578063ddc2c8201461021a578063ded1414214610236576100a9565b80633e6c5fd9146100ae57806345eaa227146100ca57806363045c8a146100e6578063769bf561146101025780637d6b15c014610132575b600080fd5b6100c860048036038101906100c39190611e04565b610266565b005b6100e460048036038101906100df9190611e31565b610520565b005b61010060048036038101906100fb9190611e04565b6108fd565b005b61011c60048036038101906101179190611e04565b610c05565b604051610129919061231b565b60405180910390f35b61014c60048036038101906101479190611e91565b610e3b565b60405161015f97969594939291906121ad565b60405180910390f35b610182600480360381019061017d9190611e04565b610fcd565b60405161018f91906122f9565b60405180910390f35b6101a06113a7565b6040516101ad919061233d565b60405180910390f35b6101d060048036038101906101cb9190611e04565b6113b4565b6040516101e094939291906122ad565b60405180910390f35b61020360048036038101906101fe9190611e04565b61148c565b60405161021192919061227d565b60405180910390f35b610234600480360381019061022f9190611ebe565b611558565b005b610250600480360381019061024b9190611e04565b61179b565b60405161025d91906122f9565b60405180910390f35b600080600480549050905060005b81811015610309573373ffffffffffffffffffffffffffffffffffffffff16600482815481106102a7576102a661262d565b5b9060005260206000200160009054906101000a900473ffffffffffffffffffffffffffffffffffffffff1673ffffffffffffffffffffffffffffffffffffffff1614156102f657809250610309565b808061030190612533565b915050610274565b506000338460405160200161031f929190612181565b60405160208183030381529060405280519060200120905060026000828152602001908152602001600020600080820160006101000a81549073ffffffffffffffffffffffffffffffffffffffff02191690556001820160006101000a81549073ffffffffffffffffffffffffffffffffffffffff02191690556002820160006103a99190611b75565b6003820160006103b99190611b75565b6004820160009055600582016000905560068201600090555050600160003373ffffffffffffffffffffffffffffffffffffffff1673ffffffffffffffffffffffffffffffffffffffff168152602001908152602001600020600080820160006101000a81549073ffffffffffffffffffffffffffffffffffffffff021916905560018201600061044a9190611b75565b505060009250600580549050915060005b828110156104a457600581815481106104775761047661262d565b5b9060005260206000200154821415610491578093506104a4565b808061049c90612533565b91505061045b565b5060056001836104b49190612414565b815481106104c5576104c461262d565b5b9060005260206000200154600584815481106104e4576104e361262d565b5b90600052602060002001819055506005805480610504576105036125fe565b5b6001900381819060005260206000200160009055905550505050565b60405180604001604052803373ffffffffffffffffffffffffffffffffffffffff16815260200183838080601f016020809104026020016040519081016040528093929190818152602001838380828437600081840152601f19601f82011690508083019250505050505050815250600160003373ffffffffffffffffffffffffffffffffffffffff1673ffffffffffffffffffffffffffffffffffffffff16815260200190815260200160002060008201518160000160006101000a81548173ffffffffffffffffffffffffffffffffffffffff021916908373ffffffffffffffffffffffffffffffffffffffff1602179055506020820151816001019080519060200190610631929190611bb5565b509050506004339080600181540180825580915050600190039060005260206000200160009091909190916101000a81548173ffffffffffffffffffffffffffffffffffffffff021916908373ffffffffffffffffffffffffffffffffffffffff160217905550600033846040516020016106ad929190612181565b60405160208183030381529060405280519060200120905060006106d085610c05565b90506040518060e001604052803373ffffffffffffffffffffffffffffffffffffffff1681526020018673ffffffffffffffffffffffffffffffffffffffff1681526020018260600151815260200185858080601f016020809104026020016040519081016040528093929190818152602001838380828437600081840152601f19601f8201169050808301925050505050505081526020018260200151815260200142815260200182604001518152506002600084815260200190815260200160002060008201518160000160006101000a81548173ffffffffffffffffffffffffffffffffffffffff021916908373ffffffffffffffffffffffffffffffffffffffff16021790555060208201518160010160006101000a81548173ffffffffffffffffffffffffffffffffffffffff021916908373ffffffffffffffffffffffffffffffffffffffff160217905550604082015181600201908051906020019061083e929190611bb5565b50606082015181600301908051906020019061085b929190611bb5565b506080820151816004015560a0820151816005015560c0820151816006015590505060058290806001815401808255809150506001900390600052602060002001600090919091909150556108af856108fd565b7fc89cd484f6709efbac275001fe2ec670dbb47f3c0123a3820f546fa8225c06e0338683602001518460400151426040516108ee95949392919061222a565b60405180910390a15050505050565b80600080600380549050905060005b8181101561099c578373ffffffffffffffffffffffffffffffffffffffff166003828154811061093f5761093e61262d565b5b9060005260206000200160009054906101000a900473ffffffffffffffffffffffffffffffffffffffff1673ffffffffffffffffffffffffffffffffffffffff16141561098f576001925061099c565b808060010191505061090c565b506000151582151514156109dc576040517f82b4290000000000000000000000000000000000000000000000000000000000815260040160405180910390fd5b6000808573ffffffffffffffffffffffffffffffffffffffff1673ffffffffffffffffffffffffffffffffffffffff168152602001908152602001600020600080820160006101000a81549073ffffffffffffffffffffffffffffffffffffffff021916905560018201600090556002820160009055600382016000610a629190611b75565b5050600080610a6f6113a7565b905060005b81811015610b095760038181548110610a9057610a8f61262d565b5b9060005260206000200160009054906101000a900473ffffffffffffffffffffffffffffffffffffffff1673ffffffffffffffffffffffffffffffffffffffff168773ffffffffffffffffffffffffffffffffffffffff161415610af657809250610b09565b8080610b0190612533565b915050610a74565b5060036001600380549050610b1e9190612414565b81548110610b2f57610b2e61262d565b5b9060005260206000200160009054906101000a900473ffffffffffffffffffffffffffffffffffffffff1660038381548110610b6e57610b6d61262d565b5b9060005260206000200160006101000a81548173ffffffffffffffffffffffffffffffffffffffff021916908373ffffffffffffffffffffffffffffffffffffffff1602179055506003805480610bc857610bc76125fe565b5b6001900381819060005260206000200160006101000a81549073ffffffffffffffffffffffffffffffffffffffff02191690559055505050505050565b610c0d611c3b565b81600080600380549050905060005b81811015610cac578373ffffffffffffffffffffffffffffffffffffffff1660038281548110610c4f57610c4e61262d565b5b9060005260206000200160009054906101000a900473ffffffffffffffffffffffffffffffffffffffff1673ffffffffffffffffffffffffffffffffffffffff161415610c9f5760019250610cac565b8080600101915050610c1c565b50600015158215151415610cec576040517f82b4290000000000000000000000000000000000000000000000000000000000815260040160405180910390fd5b6000808673ffffffffffffffffffffffffffffffffffffffff1673ffffffffffffffffffffffffffffffffffffffff1681526020019081526020016000206040518060800160405290816000820160009054906101000a900473ffffffffffffffffffffffffffffffffffffffff1673ffffffffffffffffffffffffffffffffffffffff1673ffffffffffffffffffffffffffffffffffffffff1681526020016001820154815260200160028201548152602001600382018054610daf906124d0565b80601f0160208091040260200160405190810160405280929190818152602001828054610ddb906124d0565b8015610e285780601f10610dfd57610100808354040283529160200191610e28565b820191906000526020600020905b815481529060010190602001808311610e0b57829003601f168201915b5050505050815250509350505050919050565b60026020528060005260406000206000915090508060000160009054906101000a900473ffffffffffffffffffffffffffffffffffffffff16908060010160009054906101000a900473ffffffffffffffffffffffffffffffffffffffff1690806002018054610eaa906124d0565b80601f0160208091040260200160405190810160405280929190818152602001828054610ed6906124d0565b8015610f235780601f10610ef857610100808354040283529160200191610f23565b820191906000526020600020905b815481529060010190602001808311610f0657829003601f168201915b505050505090806003018054610f38906124d0565b80601f0160208091040260200160405190810160405280929190818152602001828054610f64906124d0565b8015610fb15780601f10610f8657610100808354040283529160200191610fb1565b820191906000526020600020905b815481529060010190602001808311610f9457829003601f168201915b5050505050908060040154908060050154908060060154905087565b6060600060058054905067ffffffffffffffff811115610ff057610fef61265c565b5b60405190808252806020026020018201604052801561102957816020015b611016611c79565b81526020019060019003908161100e5790505b5090506000805b6005805490508110156112eb576000600582815481106110535761105261262d565b5b906000526020600020015490506000600260008381526020019081526020016000206040518060e00160405290816000820160009054906101000a900473ffffffffffffffffffffffffffffffffffffffff1673ffffffffffffffffffffffffffffffffffffffff1673ffffffffffffffffffffffffffffffffffffffff1681526020016001820160009054906101000a900473ffffffffffffffffffffffffffffffffffffffff1673ffffffffffffffffffffffffffffffffffffffff1673ffffffffffffffffffffffffffffffffffffffff16815260200160028201805461113c906124d0565b80601f0160208091040260200160405190810160405280929190818152602001828054611168906124d0565b80156111b55780601f1061118a576101008083540402835291602001916111b5565b820191906000526020600020905b81548152906001019060200180831161119857829003601f168201915b505050505081526020016003820180546111ce906124d0565b80601f01602080910402602001604051908101604052809291908181526020018280546111fa906124d0565b80156112475780601f1061121c57610100808354040283529160200191611247565b820191906000526020600020905b81548152906001019060200180831161122a57829003601f168201915b50505050508152602001600482015481526020016005820154815260200160068201548152505090508673ffffffffffffffffffffffffffffffffffffffff16816000015173ffffffffffffffffffffffffffffffffffffffff1614156112d657808585815181106112bc576112bb61262d565b5b602002602001018190525083806112d290612533565b9450505b505080806112e390612533565b915050611030565b5060008167ffffffffffffffff8111156113085761130761265c565b5b60405190808252806020026020018201604052801561134157816020015b61132e611c79565b8152602001906001900390816113265790505b50905060005b8281101561139b578381815181106113625761136161262d565b5b602002602001015182828151811061137d5761137c61262d565b5b6020026020010181905250808061139390612533565b915050611347565b50809350505050919050565b6000600380549050905090565b60006020528060005260406000206000915090508060000160009054906101000a900473ffffffffffffffffffffffffffffffffffffffff1690806001015490806002015490806003018054611409906124d0565b80601f0160208091040260200160405190810160405280929190818152602001828054611435906124d0565b80156114825780601f1061145757610100808354040283529160200191611482565b820191906000526020600020905b81548152906001019060200180831161146557829003601f168201915b5050505050905084565b60016020528060005260406000206000915090508060000160009054906101000a900473ffffffffffffffffffffffffffffffffffffffff16908060010180546114d5906124d0565b80601f0160208091040260200160405190810160405280929190818152602001828054611501906124d0565b801561154e5780601f106115235761010080835404028352916020019161154e565b820191906000526020600020905b81548152906001019060200180831161153157829003601f168201915b5050505050905082565b60006001905060006003805490509050600033905060005b82811015611600578173ffffffffffffffffffffffffffffffffffffffff16600382815481106115a3576115a261262d565b5b9060005260206000200160009054906101000a900473ffffffffffffffffffffffffffffffffffffffff1673ffffffffffffffffffffffffffffffffffffffff1614156115f35760009350611600565b8080600101915050611570565b50600015158315151415611640576040517f82b4290000000000000000000000000000000000000000000000000000000000815260040160405180910390fd5b60405180608001604052808273ffffffffffffffffffffffffffffffffffffffff168152602001878152602001868152602001858152506000808373ffffffffffffffffffffffffffffffffffffffff1673ffffffffffffffffffffffffffffffffffffffff16815260200190815260200160002060008201518160000160006101000a81548173ffffffffffffffffffffffffffffffffffffffff021916908373ffffffffffffffffffffffffffffffffffffffff1602179055506020820151816001015560408201518160020155606082015181600301908051906020019061172c929190611bb5565b509050506003819080600181540180825580915050600190039060005260206000200160009091909190916101000a81548173ffffffffffffffffffffffffffffffffffffffff021916908373ffffffffffffffffffffffffffffffffffffffff160217905550505050505050565b6060600060058054905067ffffffffffffffff8111156117be576117bd61265c565b5b6040519080825280602002602001820160405280156117f757816020015b6117e4611c79565b8152602001906001900390816117dc5790505b5090506000805b600580549050811015611ab9576000600582815481106118215761182061262d565b5b906000526020600020015490506000600260008381526020019081526020016000206040518060e00160405290816000820160009054906101000a900473ffffffffffffffffffffffffffffffffffffffff1673ffffffffffffffffffffffffffffffffffffffff1673ffffffffffffffffffffffffffffffffffffffff1681526020016001820160009054906101000a900473ffffffffffffffffffffffffffffffffffffffff1673ffffffffffffffffffffffffffffffffffffffff1673ffffffffffffffffffffffffffffffffffffffff16815260200160028201805461190a906124d0565b80601f0160208091040260200160405190810160405280929190818152602001828054611936906124d0565b80156119835780601f1061195857610100808354040283529160200191611983565b820191906000526020600020905b81548152906001019060200180831161196657829003601f168201915b5050505050815260200160038201805461199c906124d0565b80601f01602080910402602001604051908101604052809291908181526020018280546119c8906124d0565b8015611a155780601f106119ea57610100808354040283529160200191611a15565b820191906000526020600020905b8154815290600101906020018083116119f857829003601f168201915b50505050508152602001600482015481526020016005820154815260200160068201548152505090508673ffffffffffffffffffffffffffffffffffffffff16816020015173ffffffffffffffffffffffffffffffffffffffff161415611aa45780858581518110611a8a57611a8961262d565b5b60200260200101819052508380611aa090612533565b9450505b50508080611ab190612533565b9150506117fe565b5060008167ffffffffffffffff811115611ad657611ad561265c565b5b604051908082528060200260200182016040528015611b0f57816020015b611afc611c79565b815260200190600190039081611af45790505b50905060005b82811015611b6957838181518110611b3057611b2f61262d565b5b6020026020010151828281518110611b4b57611b4a61262d565b5b60200260200101819052508080611b6190612533565b915050611b15565b50809350505050919050565b508054611b81906124d0565b6000825580601f10611b935750611bb2565b601f016020900490600052602060002090810190611bb19190611ce2565b5b50565b828054611bc1906124d0565b90600052602060002090601f016020900481019282611be35760008555611c2a565b82601f10611bfc57805160ff1916838001178555611c2a565b82800160010185558215611c2a579182015b82811115611c29578251825591602001919060010190611c0e565b5b509050611c379190611ce2565b5090565b6040518060800160405280600073ffffffffffffffffffffffffffffffffffffffff1681526020016000815260200160008152602001606081525090565b6040518060e00160405280600073ffffffffffffffffffffffffffffffffffffffff168152602001600073ffffffffffffffffffffffffffffffffffffffff16815260200160608152602001606081526020016000815260200160008152602001600081525090565b5b80821115611cfb576000816000905550600101611ce3565b5090565b6000611d12611d0d8461237d565b612358565b905082815260208101848484011115611d2e57611d2d61269a565b5b611d3984828561248e565b509392505050565b600081359050611d50816126c7565b92915050565b600081359050611d65816126de565b92915050565b60008083601f840112611d8157611d80612690565b5b8235905067ffffffffffffffff811115611d9e57611d9d61268b565b5b602083019150836001820283011115611dba57611db9612695565b5b9250929050565b600082601f830112611dd657611dd5612690565b5b8135611de6848260208601611cff565b91505092915050565b600081359050611dfe816126f5565b92915050565b600060208284031215611e1a57611e196126a4565b5b6000611e2884828501611d41565b91505092915050565b600080600060408486031215611e4a57611e496126a4565b5b6000611e5886828701611d41565b935050602084013567ffffffffffffffff811115611e7957611e7861269f565b5b611e8586828701611d6b565b92509250509250925092565b600060208284031215611ea757611ea66126a4565b5b6000611eb584828501611d56565b91505092915050565b600080600060608486031215611ed757611ed66126a4565b5b6000611ee586828701611def565b9350506020611ef686828701611def565b925050604084013567ffffffffffffffff811115611f1757611f1661269f565b5b611f2386828701611dc1565b9150509250925092565b6000611f39838361205d565b905092915050565b611f4a81612448565b82525050565b611f5981612448565b82525050565b611f70611f6b82612448565b61257c565b82525050565b6000611f81826123be565b611f8b81856123e1565b935083602082028501611f9d856123ae565b8060005b85811015611fd95784840389528151611fba8582611f2d565b9450611fc5836123d4565b925060208a01995050600181019050611fa1565b50829750879550505050505092915050565b6000611ff6826123c9565b61200081856123f2565b935061201081856020860161249d565b612019816126a9565b840191505092915050565b600061202f826123c9565b6120398185612403565b935061204981856020860161249d565b612052816126a9565b840191505092915050565b600060e0830160008301516120756000860182611f41565b5060208301516120886020860182611f41565b50604083015184820360408601526120a08282611feb565b915050606083015184820360608601526120ba8282611feb565b91505060808301516120cf6080860182612163565b5060a08301516120e260a0860182612163565b5060c08301516120f560c0860182612163565b508091505092915050565b60006080830160008301516121186000860182611f41565b50602083015161212b6020860182612163565b50604083015161213e6040860182612163565b50606083015184820360608601526121568282611feb565b9150508091505092915050565b61216c81612484565b82525050565b61217b81612484565b82525050565b600061218d8285611f5f565b60148201915061219d8284611f5f565b6014820191508190509392505050565b600060e0820190506121c2600083018a611f50565b6121cf6020830189611f50565b81810360408301526121e18188612024565b905081810360608301526121f58187612024565b90506122046080830186612172565b61221160a0830185612172565b61221e60c0830184612172565b98975050505050505050565b600060a08201905061223f6000830188611f50565b61224c6020830187611f50565b6122596040830186612172565b6122666060830185612172565b6122736080830184612172565b9695505050505050565b60006040820190506122926000830185611f50565b81810360208301526122a48184612024565b90509392505050565b60006080820190506122c26000830187611f50565b6122cf6020830186612172565b6122dc6040830185612172565b81810360608301526122ee8184612024565b905095945050505050565b600060208201905081810360008301526123138184611f76565b905092915050565b600060208201905081810360008301526123358184612100565b905092915050565b60006020820190506123526000830184612172565b92915050565b6000612362612373565b905061236e8282612502565b919050565b6000604051905090565b600067ffffffffffffffff8211156123985761239761265c565b5b6123a1826126a9565b9050602081019050919050565b6000819050602082019050919050565b600081519050919050565b600081519050919050565b6000602082019050919050565b600082825260208201905092915050565b600082825260208201905092915050565b600082825260208201905092915050565b600061241f82612484565b915061242a83612484565b92508282101561243d5761243c6125a0565b5b828203905092915050565b600061245382612464565b9050919050565b6000819050919050565b600073ffffffffffffffffffffffffffffffffffffffff82169050919050565b6000819050919050565b82818337600083830152505050565b60005b838110156124bb5780820151818401526020810190506124a0565b838111156124ca576000848401525b50505050565b600060028204905060018216806124e857607f821691505b602082108114156124fc576124fb6125cf565b5b50919050565b61250b826126a9565b810181811067ffffffffffffffff8211171561252a5761252961265c565b5b80604052505050565b600061253e82612484565b91507fffffffffffffffffffffffffffffffffffffffffffffffffffffffffffffffff821415612571576125706125a0565b5b600182019050919050565b60006125878261258e565b9050919050565b6000612599826126ba565b9050919050565b7f4e487b7100000000000000000000000000000000000000000000000000000000600052601160045260246000fd5b7f4e487b7100000000000000000000000000000000000000000000000000000000600052602260045260246000fd5b7f4e487b7100000000000000000000000000000000000000000000000000000000600052603160045260246000fd5b7f4e487b7100000000000000000000000000000000000000000000000000000000600052603260045260246000fd5b7f4e487b7100000000000000000000000000000000000000000000000000000000600052604160045260246000fd5b600080fd5b600080fd5b600080fd5b600080fd5b600080fd5b600080fd5b6000601f19601f8301169050919050565b60008160601b9050919050565b6126d081612448565b81146126db57600080fd5b50565b6126e78161245a565b81146126f257600080fd5b50565b6126fe81612484565b811461270957600080fd5b5056fea264697066735822122073920b955d96122eed76629c3823dd18448110fa83d48c86974be336fb6838eb64736f6c63430008070033",
    "linkReferences": {},
    "deployedLinkReferences": {}
}