{
  "_format": "hh-sol-artifact-1",
  "contractName": "Space_Share",
  "sourceName": "contracts/space_share.sol",
  "abi": [
    {
      "inputs": [],
      "name": "Unauthorized",
      "type": "error"
    },
    {
      "anonymous": false,
      "inputs": [
        {
          "indexed": false,
          "internalType": "address",
          "name": "dataOwner",
          "type": "address"
        },
        {
          "indexed": false,
          "internalType": "address",
          "name": "storageOwner",
          "type": "address"
        },
        {
          "indexed": false,
          "internalType": "uint256",
          "name": "volumeGB",
          "type": "uint256"
        },
        {
          "indexed": false,
          "internalType": "uint256",
          "name": "pricePerGB",
          "type": "uint256"
        },
        {
          "indexed": false,
          "internalType": "uint256",
          "name": "startDate",
          "type": "uint256"
        }
      ],
      "name": "StorageContractCreated",
      "type": "event"
    },
    {
      "inputs": [
        {
          "internalType": "address",
          "name": "",
          "type": "address"
        }
      ],
      "name": "DataOwnerMap",
      "outputs": [
        {
          "internalType": "address",
          "name": "DO",
          "type": "address"
        },
        {
          "internalType": "string",
          "name": "DOConnectionInfo",
          "type": "string"
        }
      ],
      "stateMutability": "view",
      "type": "function"
    },
    {
      "inputs": [
        {
          "internalType": "bytes32",
          "name": "",
          "type": "bytes32"
        }
      ],
      "name": "StorageContractMap",
      "outputs": [
        {
          "internalType": "address",
          "name": "DO",
          "type": "address"
        },
        {
          "internalType": "address",
          "name": "SO",
          "type": "address"
        },
        {
          "internalType": "string",
          "name": "SOConnectionInfo",
          "type": "string"
        },
        {
          "internalType": "string",
          "name": "DOConnectionInfo",
          "type": "string"
        },
        {
          "internalType": "uint256",
          "name": "volumeGB",
          "type": "uint256"
        },
        {
          "internalType": "uint256",
          "name": "startDate",
          "type": "uint256"
        },
        {
          "internalType": "uint256",
          "name": "pricePerGB",
          "type": "uint256"
        }
      ],
      "stateMutability": "view",
      "type": "function"
    },
    {
      "inputs": [
        {
          "internalType": "address",
          "name": "",
          "type": "address"
        }
      ],
      "name": "StorageOwnerMap",
      "outputs": [
        {
          "internalType": "address",
          "name": "SO",
          "type": "address"
        },
        {
          "internalType": "uint256",
          "name": "volumeGB",
          "type": "uint256"
        },
        {
          "internalType": "uint256",
          "name": "pricePerGB",
          "type": "uint256"
        },
        {
          "internalType": "string",
          "name": "SOConnectionInfo",
          "type": "string"
        }
      ],
      "stateMutability": "view",
      "type": "function"
    },
    {
      "inputs": [
        {
          "internalType": "address",
          "name": "SO",
          "type": "address"
        }
      ],
      "name": "cancelStorageContract",
      "outputs": [],
      "stateMutability": "nonpayable",
      "type": "function"
    },
    {
      "inputs": [
        {
          "internalType": "address",
          "name": "SO",
          "type": "address"
        }
      ],
      "name": "cancelStorageOrder",
      "outputs": [],
      "stateMutability": "nonpayable",
      "type": "function"
    },
    {
      "inputs": [
        {
          "internalType": "address",
          "name": "SO",
          "type": "address"
        },
        {
          "internalType": "string",
          "name": "DOConnectionInfo",
          "type": "string"
        }
      ],
      "name": "createStorageContract",
      "outputs": [],
      "stateMutability": "nonpayable",
      "type": "function"
    },
    {
      "inputs": [
        {
          "internalType": "uint256",
          "name": "volumeGB",
          "type": "uint256"
        },
        {
          "internalType": "uint256",
          "name": "pricePerGB",
          "type": "uint256"
        },
        {
          "internalType": "string",
          "name": "SOConnectionInfo",
          "type": "string"
        }
      ],
      "name": "createStorageOrder",
      "outputs": [],
      "stateMutability": "nonpayable",
      "type": "function"
    },
    {
      "inputs": [],
      "name": "getAllStorageOrder",
      "outputs": [
        {
          "components": [
            {
              "internalType": "address",
              "name": "SO",
              "type": "address"
            },
            {
              "internalType": "uint256",
              "name": "volumeGB",
              "type": "uint256"
            },
            {
              "internalType": "uint256",
              "name": "pricePerGB",
              "type": "uint256"
            },
            {
              "internalType": "string",
              "name": "SOConnectionInfo",
              "type": "string"
            }
          ],
          "internalType": "struct Space_Share.StorageOwner[]",
          "name": "",
          "type": "tuple[]"
        }
      ],
      "stateMutability": "view",
      "type": "function"
    },
    {
      "inputs": [
        {
          "internalType": "address",
          "name": "DO",
          "type": "address"
        }
      ],
      "name": "getStorageContractsByDO",
      "outputs": [
        {
          "components": [
            {
              "internalType": "address",
              "name": "DO",
              "type": "address"
            },
            {
              "internalType": "address",
              "name": "SO",
              "type": "address"
            },
            {
              "internalType": "string",
              "name": "SOConnectionInfo",
              "type": "string"
            },
            {
              "internalType": "string",
              "name": "DOConnectionInfo",
              "type": "string"
            },
            {
              "internalType": "uint256",
              "name": "volumeGB",
              "type": "uint256"
            },
            {
              "internalType": "uint256",
              "name": "startDate",
              "type": "uint256"
            },
            {
              "internalType": "uint256",
              "name": "pricePerGB",
              "type": "uint256"
            }
          ],
          "internalType": "struct Space_Share.StorageContract[]",
          "name": "",
          "type": "tuple[]"
        }
      ],
      "stateMutability": "view",
      "type": "function"
    },
    {
      "inputs": [
        {
          "internalType": "address",
          "name": "SO",
          "type": "address"
        }
      ],
      "name": "getStorageContractsBySO",
      "outputs": [
        {
          "components": [
            {
              "internalType": "address",
              "name": "DO",
              "type": "address"
            },
            {
              "internalType": "address",
              "name": "SO",
              "type": "address"
            },
            {
              "internalType": "string",
              "name": "SOConnectionInfo",
              "type": "string"
            },
            {
              "internalType": "string",
              "name": "DOConnectionInfo",
              "type": "string"
            },
            {
              "internalType": "uint256",
              "name": "volumeGB",
              "type": "uint256"
            },
            {
              "internalType": "uint256",
              "name": "startDate",
              "type": "uint256"
            },
            {
              "internalType": "uint256",
              "name": "pricePerGB",
              "type": "uint256"
            }
          ],
          "internalType": "struct Space_Share.StorageContract[]",
          "name": "",
          "type": "tuple[]"
        }
      ],
      "stateMutability": "view",
      "type": "function"
    },
    {
      "inputs": [
        {
          "internalType": "address",
          "name": "_SO",
          "type": "address"
        }
      ],
      "name": "getStorageOrder",
      "outputs": [
        {
          "components": [
            {
              "internalType": "address",
              "name": "SO",
              "type": "address"
            },
            {
              "internalType": "uint256",
              "name": "volumeGB",
              "type": "uint256"
            },
            {
              "internalType": "uint256",
              "name": "pricePerGB",
              "type": "uint256"
            },
            {
              "internalType": "string",
              "name": "SOConnectionInfo",
              "type": "string"
            }
          ],
          "internalType": "struct Space_Share.StorageOwner",
          "name": "SO",
          "type": "tuple"
        }
      ],
      "stateMutability": "view",
      "type": "function"
    },
    {
      "inputs": [],
      "name": "getStorageOrderLength",
      "outputs": [
        {
          "internalType": "uint256",
          "name": "",
          "type": "uint256"
        }
      ],
      "stateMutability": "view",
      "type": "function"
    }
  ],
  "bytecode": "0x608060405234801561001057600080fd5b50612da5806100206000396000f3fe608060405234801561001057600080fd5b50600436106100b45760003560e01c806390ce03071161007157806390ce030714610191578063ac4679d1146101c1578063ad6a0c38146101df578063b93e185914610212578063ddc2c82014610243578063ded141421461025f576100b4565b80631a8c2ca3146100b95780633e6c5fd9146100d757806345eaa227146100f357806363045c8a1461010f578063769bf5611461012b5780637d6b15c01461015b575b600080fd5b6100c161028f565b6040516100ce9190612923565b60405180910390f35b6100f160048036038101906100ec9190612320565b6103ea565b005b61010d6004803603810190610108919061234d565b6106a4565b005b61012960048036038101906101249190612320565b610a81565b005b61014560048036038101906101409190612320565b610f8e565b6040516101529190612945565b60405180910390f35b610175600480360381019061017091906123ad565b6111c4565b60405161018897969594939291906127b5565b60405180910390f35b6101ab60048036038101906101a69190612320565b611356565b6040516101b89190612901565b60405180910390f35b6101c9611730565b6040516101d69190612967565b60405180910390f35b6101f960048036038101906101f49190612320565b61173d565b60405161020994939291906128b5565b60405180910390f35b61022c60048036038101906102279190612320565b611815565b60405161023a929190612885565b60405180910390f35b61025d600480360381019061025891906123da565b6118e1565b005b61027960048036038101906102749190612320565b611c2a565b6040516102869190612901565b60405180910390f35b60606005805480602002602001604051908101604052809291908181526020016000905b828210156103e157838290600052602060002090600402016040518060800160405290816000820160009054906101000a900473ffffffffffffffffffffffffffffffffffffffff1673ffffffffffffffffffffffffffffffffffffffff1673ffffffffffffffffffffffffffffffffffffffff168152602001600182015481526020016002820154815260200160038201805461035090612b33565b80601f016020809104026020016040519081016040528092919081815260200182805461037c90612b33565b80156103c95780601f1061039e576101008083540402835291602001916103c9565b820191906000526020600020905b8154815290600101906020018083116103ac57829003601f168201915b505050505081525050815260200190600101906102b3565b50505050905090565b600080600480549050905060005b8181101561048d573373ffffffffffffffffffffffffffffffffffffffff166004828154811061042b5761042a612c90565b5b9060005260206000200160009054906101000a900473ffffffffffffffffffffffffffffffffffffffff1673ffffffffffffffffffffffffffffffffffffffff16141561047a5780925061048d565b808061048590612b96565b9150506103f8565b50600033846040516020016104a3929190612789565b60405160208183030381529060405280519060200120905060026000828152602001908152602001600020600080820160006101000a81549073ffffffffffffffffffffffffffffffffffffffff02191690556001820160006101000a81549073ffffffffffffffffffffffffffffffffffffffff021916905560028201600061052d9190612004565b60038201600061053d9190612004565b6004820160009055600582016000905560068201600090555050600160003373ffffffffffffffffffffffffffffffffffffffff1673ffffffffffffffffffffffffffffffffffffffff168152602001908152602001600020600080820160006101000a81549073ffffffffffffffffffffffffffffffffffffffff02191690556001820160006105ce9190612004565b505060009250600680549050915060005b8281101561062857600681815481106105fb576105fa612c90565b5b906000526020600020015482141561061557809350610628565b808061062090612b96565b9150506105df565b5060066001836106389190612a77565b8154811061064957610648612c90565b5b90600052602060002001546006848154811061066857610667612c90565b5b9060005260206000200181905550600680548061068857610687612c61565b5b6001900381819060005260206000200160009055905550505050565b60405180604001604052803373ffffffffffffffffffffffffffffffffffffffff16815260200183838080601f016020809104026020016040519081016040528093929190818152602001838380828437600081840152601f19601f82011690508083019250505050505050815250600160003373ffffffffffffffffffffffffffffffffffffffff1673ffffffffffffffffffffffffffffffffffffffff16815260200190815260200160002060008201518160000160006101000a81548173ffffffffffffffffffffffffffffffffffffffff021916908373ffffffffffffffffffffffffffffffffffffffff16021790555060208201518160010190805190602001906107b5929190612044565b509050506004339080600181540180825580915050600190039060005260206000200160009091909190916101000a81548173ffffffffffffffffffffffffffffffffffffffff021916908373ffffffffffffffffffffffffffffffffffffffff16021790555060003384604051602001610831929190612789565b604051602081830303815290604052805190602001209050600061085485610f8e565b90506040518060e001604052803373ffffffffffffffffffffffffffffffffffffffff1681526020018673ffffffffffffffffffffffffffffffffffffffff1681526020018260600151815260200185858080601f016020809104026020016040519081016040528093929190818152602001838380828437600081840152601f19601f8201169050808301925050505050505081526020018260200151815260200142815260200182604001518152506002600084815260200190815260200160002060008201518160000160006101000a81548173ffffffffffffffffffffffffffffffffffffffff021916908373ffffffffffffffffffffffffffffffffffffffff16021790555060208201518160010160006101000a81548173ffffffffffffffffffffffffffffffffffffffff021916908373ffffffffffffffffffffffffffffffffffffffff16021790555060408201518160020190805190602001906109c2929190612044565b5060608201518160030190805190602001906109df929190612044565b506080820151816004015560a0820151816005015560c082015181600601559050506006829080600181540180825580915050600190039060005260206000200160009091909190915055610a3385610a81565b7fc89cd484f6709efbac275001fe2ec670dbb47f3c0123a3820f546fa8225c06e033868360200151846040015142604051610a72959493929190612832565b60405180910390a15050505050565b80600080600380549050905060005b81811015610b20578373ffffffffffffffffffffffffffffffffffffffff1660038281548110610ac357610ac2612c90565b5b9060005260206000200160009054906101000a900473ffffffffffffffffffffffffffffffffffffffff1673ffffffffffffffffffffffffffffffffffffffff161415610b135760019250610b20565b8080600101915050610a90565b50600015158215151415610b60576040517f82b4290000000000000000000000000000000000000000000000000000000000815260040160405180910390fd5b6000808573ffffffffffffffffffffffffffffffffffffffff1673ffffffffffffffffffffffffffffffffffffffff168152602001908152602001600020600080820160006101000a81549073ffffffffffffffffffffffffffffffffffffffff021916905560018201600090556002820160009055600382016000610be69190612004565b5050600080610bf3611730565b905060005b81811015610c8d5760038181548110610c1457610c13612c90565b5b9060005260206000200160009054906101000a900473ffffffffffffffffffffffffffffffffffffffff1673ffffffffffffffffffffffffffffffffffffffff168773ffffffffffffffffffffffffffffffffffffffff161415610c7a57809250610c8d565b8080610c8590612b96565b915050610bf8565b5060036001600380549050610ca29190612a77565b81548110610cb357610cb2612c90565b5b9060005260206000200160009054906101000a900473ffffffffffffffffffffffffffffffffffffffff1660038381548110610cf257610cf1612c90565b5b9060005260206000200160006101000a81548173ffffffffffffffffffffffffffffffffffffffff021916908373ffffffffffffffffffffffffffffffffffffffff1602179055506003805480610d4c57610d4b612c61565b5b6001900381819060005260206000200160006101000a81549073ffffffffffffffffffffffffffffffffffffffff0219169055905560005b81811015610e205760058181548110610da057610d9f612c90565b5b906000526020600020906004020160000160009054906101000a900473ffffffffffffffffffffffffffffffffffffffff1673ffffffffffffffffffffffffffffffffffffffff168773ffffffffffffffffffffffffffffffffffffffff161415610e0d57809250610e20565b8080610e1890612b96565b915050610d84565b5060056001600580549050610e359190612a77565b81548110610e4657610e45612c90565b5b906000526020600020906004020160058381548110610e6857610e67612c90565b5b90600052602060002090600402016000820160009054906101000a900473ffffffffffffffffffffffffffffffffffffffff168160000160006101000a81548173ffffffffffffffffffffffffffffffffffffffff021916908373ffffffffffffffffffffffffffffffffffffffff16021790555060018201548160010155600282015481600201556003820181600301908054610f0590612b33565b610f109291906120ca565b509050506005805480610f2657610f25612c61565b5b6001900381819060005260206000209060040201600080820160006101000a81549073ffffffffffffffffffffffffffffffffffffffff021916905560018201600090556002820160009055600382016000610f829190612004565b50509055505050505050565b610f96612157565b81600080600380549050905060005b81811015611035578373ffffffffffffffffffffffffffffffffffffffff1660038281548110610fd857610fd7612c90565b5b9060005260206000200160009054906101000a900473ffffffffffffffffffffffffffffffffffffffff1673ffffffffffffffffffffffffffffffffffffffff1614156110285760019250611035565b8080600101915050610fa5565b50600015158215151415611075576040517f82b4290000000000000000000000000000000000000000000000000000000000815260040160405180910390fd5b6000808673ffffffffffffffffffffffffffffffffffffffff1673ffffffffffffffffffffffffffffffffffffffff1681526020019081526020016000206040518060800160405290816000820160009054906101000a900473ffffffffffffffffffffffffffffffffffffffff1673ffffffffffffffffffffffffffffffffffffffff1673ffffffffffffffffffffffffffffffffffffffff168152602001600182015481526020016002820154815260200160038201805461113890612b33565b80601f016020809104026020016040519081016040528092919081815260200182805461116490612b33565b80156111b15780601f10611186576101008083540402835291602001916111b1565b820191906000526020600020905b81548152906001019060200180831161119457829003601f168201915b5050505050815250509350505050919050565b60026020528060005260406000206000915090508060000160009054906101000a900473ffffffffffffffffffffffffffffffffffffffff16908060010160009054906101000a900473ffffffffffffffffffffffffffffffffffffffff169080600201805461123390612b33565b80601f016020809104026020016040519081016040528092919081815260200182805461125f90612b33565b80156112ac5780601f10611281576101008083540402835291602001916112ac565b820191906000526020600020905b81548152906001019060200180831161128f57829003601f168201915b5050505050908060030180546112c190612b33565b80601f01602080910402602001604051908101604052809291908181526020018280546112ed90612b33565b801561133a5780601f1061130f5761010080835404028352916020019161133a565b820191906000526020600020905b81548152906001019060200180831161131d57829003601f168201915b5050505050908060040154908060050154908060060154905087565b6060600060068054905067ffffffffffffffff81111561137957611378612cbf565b5b6040519080825280602002602001820160405280156113b257816020015b61139f612195565b8152602001906001900390816113975790505b5090506000805b600680549050811015611674576000600682815481106113dc576113db612c90565b5b906000526020600020015490506000600260008381526020019081526020016000206040518060e00160405290816000820160009054906101000a900473ffffffffffffffffffffffffffffffffffffffff1673ffffffffffffffffffffffffffffffffffffffff1673ffffffffffffffffffffffffffffffffffffffff1681526020016001820160009054906101000a900473ffffffffffffffffffffffffffffffffffffffff1673ffffffffffffffffffffffffffffffffffffffff1673ffffffffffffffffffffffffffffffffffffffff1681526020016002820180546114c590612b33565b80601f01602080910402602001604051908101604052809291908181526020018280546114f190612b33565b801561153e5780601f106115135761010080835404028352916020019161153e565b820191906000526020600020905b81548152906001019060200180831161152157829003601f168201915b5050505050815260200160038201805461155790612b33565b80601f016020809104026020016040519081016040528092919081815260200182805461158390612b33565b80156115d05780601f106115a5576101008083540402835291602001916115d0565b820191906000526020600020905b8154815290600101906020018083116115b357829003601f168201915b50505050508152602001600482015481526020016005820154815260200160068201548152505090508673ffffffffffffffffffffffffffffffffffffffff16816000015173ffffffffffffffffffffffffffffffffffffffff16141561165f578085858151811061164557611644612c90565b5b6020026020010181905250838061165b90612b96565b9450505b5050808061166c90612b96565b9150506113b9565b5060008167ffffffffffffffff81111561169157611690612cbf565b5b6040519080825280602002602001820160405280156116ca57816020015b6116b7612195565b8152602001906001900390816116af5790505b50905060005b82811015611724578381815181106116eb576116ea612c90565b5b602002602001015182828151811061170657611705612c90565b5b6020026020010181905250808061171c90612b96565b9150506116d0565b50809350505050919050565b6000600380549050905090565b60006020528060005260406000206000915090508060000160009054906101000a900473ffffffffffffffffffffffffffffffffffffffff169080600101549080600201549080600301805461179290612b33565b80601f01602080910402602001604051908101604052809291908181526020018280546117be90612b33565b801561180b5780601f106117e05761010080835404028352916020019161180b565b820191906000526020600020905b8154815290600101906020018083116117ee57829003601f168201915b5050505050905084565b60016020528060005260406000206000915090508060000160009054906101000a900473ffffffffffffffffffffffffffffffffffffffff169080600101805461185e90612b33565b80601f016020809104026020016040519081016040528092919081815260200182805461188a90612b33565b80156118d75780601f106118ac576101008083540402835291602001916118d7565b820191906000526020600020905b8154815290600101906020018083116118ba57829003601f168201915b5050505050905082565b60006001905060006003805490509050600033905060005b82811015611989578173ffffffffffffffffffffffffffffffffffffffff166003828154811061192c5761192b612c90565b5b9060005260206000200160009054906101000a900473ffffffffffffffffffffffffffffffffffffffff1673ffffffffffffffffffffffffffffffffffffffff16141561197c5760009350611989565b80806001019150506118f9565b506000151583151514156119c9576040517f82b4290000000000000000000000000000000000000000000000000000000000815260040160405180910390fd5b60405180608001604052808273ffffffffffffffffffffffffffffffffffffffff168152602001878152602001868152602001858152506000808373ffffffffffffffffffffffffffffffffffffffff1673ffffffffffffffffffffffffffffffffffffffff16815260200190815260200160002060008201518160000160006101000a81548173ffffffffffffffffffffffffffffffffffffffff021916908373ffffffffffffffffffffffffffffffffffffffff16021790555060208201518160010155604082015181600201556060820151816003019080519060200190611ab5929190612044565b509050506003819080600181540180825580915050600190039060005260206000200160009091909190916101000a81548173ffffffffffffffffffffffffffffffffffffffff021916908373ffffffffffffffffffffffffffffffffffffffff16021790555060056000808373ffffffffffffffffffffffffffffffffffffffff1673ffffffffffffffffffffffffffffffffffffffff16815260200190815260200160002090806001815401808255809150506001900390600052602060002090600402016000909190919091506000820160009054906101000a900473ffffffffffffffffffffffffffffffffffffffff168160000160006101000a81548173ffffffffffffffffffffffffffffffffffffffff021916908373ffffffffffffffffffffffffffffffffffffffff16021790555060018201548160010155600282015481600201556003820181600301908054611c1490612b33565b611c1f9291906120ca565b505050505050505050565b6060600060068054905067ffffffffffffffff811115611c4d57611c4c612cbf565b5b604051908082528060200260200182016040528015611c8657816020015b611c73612195565b815260200190600190039081611c6b5790505b5090506000805b600680549050811015611f4857600060068281548110611cb057611caf612c90565b5b906000526020600020015490506000600260008381526020019081526020016000206040518060e00160405290816000820160009054906101000a900473ffffffffffffffffffffffffffffffffffffffff1673ffffffffffffffffffffffffffffffffffffffff1673ffffffffffffffffffffffffffffffffffffffff1681526020016001820160009054906101000a900473ffffffffffffffffffffffffffffffffffffffff1673ffffffffffffffffffffffffffffffffffffffff1673ffffffffffffffffffffffffffffffffffffffff168152602001600282018054611d9990612b33565b80601f0160208091040260200160405190810160405280929190818152602001828054611dc590612b33565b8015611e125780601f10611de757610100808354040283529160200191611e12565b820191906000526020600020905b815481529060010190602001808311611df557829003601f168201915b50505050508152602001600382018054611e2b90612b33565b80601f0160208091040260200160405190810160405280929190818152602001828054611e5790612b33565b8015611ea45780601f10611e7957610100808354040283529160200191611ea4565b820191906000526020600020905b815481529060010190602001808311611e8757829003601f168201915b50505050508152602001600482015481526020016005820154815260200160068201548152505090508673ffffffffffffffffffffffffffffffffffffffff16816020015173ffffffffffffffffffffffffffffffffffffffff161415611f335780858581518110611f1957611f18612c90565b5b60200260200101819052508380611f2f90612b96565b9450505b50508080611f4090612b96565b915050611c8d565b5060008167ffffffffffffffff811115611f6557611f64612cbf565b5b604051908082528060200260200182016040528015611f9e57816020015b611f8b612195565b815260200190600190039081611f835790505b50905060005b82811015611ff857838181518110611fbf57611fbe612c90565b5b6020026020010151828281518110611fda57611fd9612c90565b5b60200260200101819052508080611ff090612b96565b915050611fa4565b50809350505050919050565b50805461201090612b33565b6000825580601f106120225750612041565b601f01602090049060005260206000209081019061204091906121fe565b5b50565b82805461205090612b33565b90600052602060002090601f01602090048101928261207257600085556120b9565b82601f1061208b57805160ff19168380011785556120b9565b828001600101855582156120b9579182015b828111156120b857825182559160200191906001019061209d565b5b5090506120c691906121fe565b5090565b8280546120d690612b33565b90600052602060002090601f0160209004810192826120f85760008555612146565b82601f106121095780548555612146565b8280016001018555821561214657600052602060002091601f016020900482015b8281111561214557825482559160010191906001019061212a565b5b50905061215391906121fe565b5090565b6040518060800160405280600073ffffffffffffffffffffffffffffffffffffffff1681526020016000815260200160008152602001606081525090565b6040518060e00160405280600073ffffffffffffffffffffffffffffffffffffffff168152602001600073ffffffffffffffffffffffffffffffffffffffff16815260200160608152602001606081526020016000815260200160008152602001600081525090565b5b808211156122175760008160009055506001016121ff565b5090565b600061222e612229846129a7565b612982565b90508281526020810184848401111561224a57612249612cfd565b5b612255848285612af1565b509392505050565b60008135905061226c81612d2a565b92915050565b60008135905061228181612d41565b92915050565b60008083601f84011261229d5761229c612cf3565b5b8235905067ffffffffffffffff8111156122ba576122b9612cee565b5b6020830191508360018202830111156122d6576122d5612cf8565b5b9250929050565b600082601f8301126122f2576122f1612cf3565b5b813561230284826020860161221b565b91505092915050565b60008135905061231a81612d58565b92915050565b60006020828403121561233657612335612d07565b5b60006123448482850161225d565b91505092915050565b60008060006040848603121561236657612365612d07565b5b60006123748682870161225d565b935050602084013567ffffffffffffffff81111561239557612394612d02565b5b6123a186828701612287565b92509250509250925092565b6000602082840312156123c3576123c2612d07565b5b60006123d184828501612272565b91505092915050565b6000806000606084860312156123f3576123f2612d07565b5b60006124018682870161230b565b93505060206124128682870161230b565b925050604084013567ffffffffffffffff81111561243357612432612d02565b5b61243f868287016122dd565b9150509250925092565b60006124558383612602565b905092915050565b600061246983836126a5565b905092915050565b61247a81612aab565b82525050565b61248981612aab565b82525050565b6124a061249b82612aab565b612bdf565b82525050565b60006124b1826129f8565b6124bb8185612a33565b9350836020820285016124cd856129d8565b8060005b8581101561250957848403895281516124ea8582612449565b94506124f583612a19565b925060208a019950506001810190506124d1565b50829750879550505050505092915050565b600061252682612a03565b6125308185612a44565b935083602082028501612542856129e8565b8060005b8581101561257e578484038952815161255f858261245d565b945061256a83612a26565b925060208a01995050600181019050612546565b50829750879550505050505092915050565b600061259b82612a0e565b6125a58185612a55565b93506125b5818560208601612b00565b6125be81612d0c565b840191505092915050565b60006125d482612a0e565b6125de8185612a66565b93506125ee818560208601612b00565b6125f781612d0c565b840191505092915050565b600060e08301600083015161261a6000860182612471565b50602083015161262d6020860182612471565b50604083015184820360408601526126458282612590565b9150506060830151848203606086015261265f8282612590565b9150506080830151612674608086018261276b565b5060a083015161268760a086018261276b565b5060c083015161269a60c086018261276b565b508091505092915050565b60006080830160008301516126bd6000860182612471565b5060208301516126d0602086018261276b565b5060408301516126e3604086018261276b565b50606083015184820360608601526126fb8282612590565b9150508091505092915050565b60006080830160008301516127206000860182612471565b506020830151612733602086018261276b565b506040830151612746604086018261276b565b506060830151848203606086015261275e8282612590565b9150508091505092915050565b61277481612ae7565b82525050565b61278381612ae7565b82525050565b6000612795828561248f565b6014820191506127a5828461248f565b6014820191508190509392505050565b600060e0820190506127ca600083018a612480565b6127d76020830189612480565b81810360408301526127e981886125c9565b905081810360608301526127fd81876125c9565b905061280c608083018661277a565b61281960a083018561277a565b61282660c083018461277a565b98975050505050505050565b600060a0820190506128476000830188612480565b6128546020830187612480565b612861604083018661277a565b61286e606083018561277a565b61287b608083018461277a565b9695505050505050565b600060408201905061289a6000830185612480565b81810360208301526128ac81846125c9565b90509392505050565b60006080820190506128ca6000830187612480565b6128d7602083018661277a565b6128e4604083018561277a565b81810360608301526128f681846125c9565b905095945050505050565b6000602082019050818103600083015261291b81846124a6565b905092915050565b6000602082019050818103600083015261293d818461251b565b905092915050565b6000602082019050818103600083015261295f8184612708565b905092915050565b600060208201905061297c600083018461277a565b92915050565b600061298c61299d565b90506129988282612b65565b919050565b6000604051905090565b600067ffffffffffffffff8211156129c2576129c1612cbf565b5b6129cb82612d0c565b9050602081019050919050565b6000819050602082019050919050565b6000819050602082019050919050565b600081519050919050565b600081519050919050565b600081519050919050565b6000602082019050919050565b6000602082019050919050565b600082825260208201905092915050565b600082825260208201905092915050565b600082825260208201905092915050565b600082825260208201905092915050565b6000612a8282612ae7565b9150612a8d83612ae7565b925082821015612aa057612a9f612c03565b5b828203905092915050565b6000612ab682612ac7565b9050919050565b6000819050919050565b600073ffffffffffffffffffffffffffffffffffffffff82169050919050565b6000819050919050565b82818337600083830152505050565b60005b83811015612b1e578082015181840152602081019050612b03565b83811115612b2d576000848401525b50505050565b60006002820490506001821680612b4b57607f821691505b60208210811415612b5f57612b5e612c32565b5b50919050565b612b6e82612d0c565b810181811067ffffffffffffffff82111715612b8d57612b8c612cbf565b5b80604052505050565b6000612ba182612ae7565b91507fffffffffffffffffffffffffffffffffffffffffffffffffffffffffffffffff821415612bd457612bd3612c03565b5b600182019050919050565b6000612bea82612bf1565b9050919050565b6000612bfc82612d1d565b9050919050565b7f4e487b7100000000000000000000000000000000000000000000000000000000600052601160045260246000fd5b7f4e487b7100000000000000000000000000000000000000000000000000000000600052602260045260246000fd5b7f4e487b7100000000000000000000000000000000000000000000000000000000600052603160045260246000fd5b7f4e487b7100000000000000000000000000000000000000000000000000000000600052603260045260246000fd5b7f4e487b7100000000000000000000000000000000000000000000000000000000600052604160045260246000fd5b600080fd5b600080fd5b600080fd5b600080fd5b600080fd5b600080fd5b6000601f19601f8301169050919050565b60008160601b9050919050565b612d3381612aab565b8114612d3e57600080fd5b50565b612d4a81612abd565b8114612d5557600080fd5b50565b612d6181612ae7565b8114612d6c57600080fd5b5056fea264697066735822122052c7448207066a6c69adff74a1b67d2d6a214072438a3f5226d3bf42084d6c7264736f6c63430008070033",
  "linkReferences": {},
  "deployedLinkReferences": {}
}